:10000000A8160120990E0000350F0000350F0000E2
:10001000350F0000350F0000350F00000000000014
:10002000000000000000000000000000350F00008C
:10003000350F000000000000350F0000E90400004B
:10004000350F0000350F0000350F0000350F0000A0
:10005000350F0000350F0000350F0000350F000090
:10006000350F0000350F0000350F0000350F000080
:10007000350F0000350F0000350F0000350F000070
:10008000350F0000350F0000350F0000350F000060
:10009000350F0000350F0000350F0000350F000050
:1000A000350F0000350F0000350F0000350F000040
:1000B000350F0000350F0000350F0000350F000030
:1000C000350F0000350F0000350F0000350F000020
:1000D000350F0000350F0000350F0000350F000010
:1000E000350F0000350F0000000000000000000088
:1000F00000000000350F0000350F0000350F000034
:10010000350F0000350F0000350F0000350F0000DF
:10011000350F0000350F0000350F0000350F0000CF
:10012000350F0000350F0000350F0000350F0000BF
:10013000350F0000350F0000350F0000350F0000AF
:10014000350F0000350F0000350F0000350F00009F
:10015000350F0000350F0000000000000000000017
:10016000000000000000000000000000000000008F
:100170000000000000000000350F0000350F0000F7
:10018000350F0000350F0000350F0000350F00005F
:1001900000000000350F0000350F0000350F000093
:1001A000350F0000350F0000350F0000350F00003F
:1001B000350F0000350F0000350F0000350F00002F
:1001C000350F0000350F0000350F0000350F00001F
:1001D000350F0000350F0000350F0000350F00000F
:1001E000350F0000350F0000350F0000350F0000FF
:1001F000350F0000350F0000350F0000350F0000EF
:10020000350F00000000000000000000350F000066
:10021000350F0000350F0000350F0000350F0000CE
:10022000350F0000350F0000350F0000350F0000BE
:10023000350F0000350F0000350F0000350F0000AE
:10024000350F0000350F0000350F0000350F00009E
:10025000350F0000350F0000350F0000350F00008E
:100260000348044B834202D0034B03B11847704745
:100270001C4600001C460000000000000548064B1C
:100280001B1AD90F01EBA301491002D0034B03B194
:10029000184770471C4600001C4600000000000084
:1002A00010B5064C237843B9FFF7DAFF044B13B1BE
:1002B0000448AFF300800123237010BD48010020E3
:1002C000000000001C46000008B5054B1BB10549A5
:1002D0000548AFF30080BDE80840FFF7CFBF00BF7F
:1002E000000000004C0100201C46000080B483B0D8
:1002F00000AF0346FB80B7F90630002B0BDBFB8811
:1003000003F01F020649B7F906305B09012000FA25
:1003100002F241F8232000BF0C37BD4680BC704775
:1003200000E100E080B483B000AF03463960FB8099
:10033000B7F90630002B0ADB3B68DAB20C49B7F993
:1003400006305201D2B20B4483F800230AE03B6826
:10035000DAB20849FB8803F00F03043B5201D2B222
:100360000B441A7600BF0C37BD4680BC704700BFF7
:1003700000E100E000ED00E080B582B000AF786001
:100380007B68013BB3F1807F01D301230FE00A4A70
:100390007B68013B536007214FF0FF30FFF7C2FF3E
:1003A000054B00229A60044B07221A60002318466E
:1003B0000837BD4680BD00BF10E000E0000000002F
:1003C00080B582B000AF7860786803F065F84FF0D0
:1003D00000020D4B03F0E2F902460B4610461946A7
:1003E00007A3D3E9002303F0AFF802460B461046FB
:1003F000194603F081FB034618460837BD4680BD09
:10040000F4D64354FB2109400080664080B584B097
:1004100000AF03463960FB80FB88DB0A9BB203F028
:100420001F03184603F072FC03463968184603F0B0
:10043000C1FC0346184603F0A9FE0346FB81FB8876
:100440005B099BB203F03F03184603F05FFC0346D1
:100450003968184603F0AEFC0346184603F096FED2
:100460000346BB81FB8803F01F03184603F04EFCD4
:1004700003463968184603F09DFC0346184603F00E
:1004800085FE03467B81B7F90E30DB021AB2B7F95D
:100490000C305B011BB213431AB2B7F90A30134395
:1004A0001BB29BB218461037BD4680BD80B483B0E6
:1004B00000AF064B7B607B681B6843F470027B686F
:1004C0001A6000BF0C37BD4680BC704788ED00E065
:1004D00080B500AF4FF0FF30FFF708FF4BF68030DC
:1004E000FFF74AFF00BF80BD80B400AF044B1B681C
:1004F0000133034A136000BFBD4680BC704700BF94
:10050000D4130020B0B582B000AF00237B605EE062
:1005100000233B6055E032493A6813465B001344C0
:100520009B000B441B687A689A4225DD2C493A6887
:1005300013465B0013449B000B441A687B68C3F1AD
:1005400060039A4218DA3B68DCB27B68DDB224496A
:100550003A6813465B0013449B000B4408331B6846
:10056000194648F6CC00FFF751FF03461A462946C4
:10057000204600F028FE21E019493A6813465B0046
:1005800013449B000B4404331B687A689A4215DDC0
:1005900013493A6813465B0013449B000B44043331
:1005A0001A687B68C3F160039A4207DA3B68DBB2E2
:1005B0007A68D1B20022184600F005FE3B6801338C
:1005C0003B603B685F2BA6DD7B6801337B607B680B
:1005D0005F2B9DDD00BF00BF0837BD46B0BD00BF2B
:1005E000EC0E002080B584B000AF78600023FB6083
:1005F00054E02E49FA681346DB0013449B000B4479
:100600001C334FF0FF421A602849FA681346DB009A
:1006100013449B000B44103300221A600023BB607C
:1006200014E0FA681346DB0013449B001F4A981835
:10063000BA6813469B0013449B001A467B68134418
:10064000194600F04FFABB680133BB60BB68032B4F
:10065000E7DD1649FA681346DB0013449B000B44A0
:100660001C331B68184602F017FF02460B46104663
:10067000194600F085FE02460B461046194603F067
:100680003BFA01460948FA681346DB0013449B0015
:1006900003441C331960FB680133FB60FB685F2B6C
:1006A000A7DD00BF00BF1037BD4680BD6C01002034
:1006B00084B0B0B584B000AF07F1200484E80F0027
:1006C0007B6C303B184602F0D5FE04460D46694B64
:1006D0001B68184602F0E0FE02460B4620462946FB
:1006E00000F04CFE02460B461046194603F004FA91
:1006F0000346FB60F86802F0CFFE02460B46104648
:10070000194600F0F9FF04460D46FB6B184602F04F
:10071000C3FE02460B462046294602F015FF02465C
:100720000B461046194603F0E7F90346BB60B9686B
:100730004FF07E5003F0F2FB0346184602F0ACFE89
:1007400002460B461046194600F042FE4FF00002EA
:10075000494B02F0F9FE02460B464FF000004749B4
:1007600002F03AFD02460B461046194603F0C4F962
:1007700003467B6042497A6C13465B0013449B003E
:100780000B4419683E487A6C13465B0013449B0087
:10079000034404331960786803F0D2FC01463848FA
:1007A0007A6C13465B0013449B0003441960FB6B97
:1007B0003449184603F0FEFA03463349184603F05D
:1007C000ADFB034619464FF07E5003F0E9F90346AE
:1007D00018462B497A6C13465B0013449B000B446C
:1007E0000833186026497A6C13465B0013449B005B
:1007F0000B440833186822497A6C13465B00134493
:100800009B000B4408331B68194603F0D3FA0346D8
:1008100018461B497A6C13465B0013449B000B443B
:100820000833186016497A6C13465B0013449B002A
:100830000B440833186812497A6C13465B00134462
:100840009B000B4408331B68194603F0B3FA0346B8
:1008500018460B497A6C13465B0013449B000B440B
:100860000833186000BF1037BD46BDE8B04004B083
:10087000704700BF6401002000006940000048404C
:10088000EC0E0020000040400000C042F0B589B0EE
:1008900006AF00237B6016E00F497A681346DB0041
:1008A00013449B00CE187B6805936D4606F1100437
:1008B0000FCC0FC523682B6096E80F00FFF7F8FEFA
:1008C0007B6801337B607B685F2BE5DD00BF00BF89
:1008D0000C37BD46F0BD00BF6C01002000000000D9
:1008E0002DE9B0439CB000AF0023FB6602E0FB6E35
:1008F0000133FB66FB6E704A9342F8DDFFF7D6FDCD
:10090000FFF7E6FD62B600BF6C4B02225A7007F19A
:10091000140350220021184603F06EFC684B7B61E3
:10092000674BBB61664BFB61664B3B62644BBB62D2
:10093000644BFB62634B3B63624B7B63614BFB63CA
:10094000604B3B645F4B7B645D4BBB645D4B3B65C5
:100950005B4B7B655A4BBB65594BFB655A48FFF7B0
:100960002FFD0346184602F097FD02460B4610463F
:10097000194601F0F1FC4FF00002544B02F0E4FD87
:1009800002460B461046194603F0B6F80346504A95
:1009900013604F4B1B684E4A12681146184603F00D
:1009A00009FA03461A464B4B1A6000F07FFC4FF0E1
:1009B0000003BB6630BF484B1A68484BA3FB0213C9
:1009C0005B094FF4FA7101FB03F3D31A002BF1D149
:1009D00000237B664EE042497A6E1346DB001344E7
:1009E0009B000B444FF000021A603D497A6E13469B
:1009F000DB0013449B000B4404334FF000021A60E9
:100A0000B86E02F049FD04460D467B6E303B184639
:100A100002F030FD804689462D4B1B68184602F0D7
:100A20003BFD02460B464046494600F0A7FC024605
:100A30000B462046294602F0D1FB02460B461046E3
:100A4000194603F059F8014625487A6E1346DB0033
:100A500013449B00034403F108043B46184600F08E
:100A60004BF922463B4693E8030082E803007B6E85
:100A700001337B667B6E5F2BADDD07F114031846F7
:100A8000FFF7B0FDFFF702FFFFF73CFDB86E02F085
:100A900003FD07A3D3E9002302F0A0FB02460B46A7
:100AA0001046194603F028F80346BB6682E700BFEC
:100AB0009A9999999999B93F9F860100000400403D
:100AC00000002041000020C100000C42000048400E
:100AD0006401002068010020D4130020D34D62106F
:100AE0006C010020B0B596B002AF786039603B6809
:100AF0001B68FB643B685B68BB643B689B687B640A
:100B00003B68DB683B647B681B68FB637B685B68F6
:100B1000BB637B681A687B689B681946104603F0C4
:100B200041F803467B637B685A687B68DB6819463B
:100B3000104603F037F803463B63796CF86C03F01A
:100B40002FF803461C46396BB86B03F029F80346AF
:100B50001946204603F02EF903461C46796BF86BC4
:100B600003F01EF803461D46396CB86C03F018F804
:100B700003461946284603F01DF903461946204648
:100B800003F00EF80346FB624FF00001F86A03F031
:100B9000A5FA0346002B40F0A780796CF86C02F0B0
:100BA000FFFF03461C46B96BB86C02F0F9FF034621
:100BB0001946204603F0FEF803461C46F96BF86C14
:100BC00002F0EEFF03461D46396CB86C02F0E8FFF8
:100BD00003461946284603F0EDF803461946204619
:100BE00002F0DEFF0346F96A184603F097F9034660
:100BF000BB624FF00001B86A03F08EFA0346002B87
:100C000074D1F96BF86C02F0CBFF03461C46396BCC
:100C1000B86B02F0C5FF03461946204603F0CAF838
:100C200003461C46796BF86B02F0BAFF03461D467B
:100C3000B96BB86C02F0B4FF03461946284603F0BE
:100C4000B9F803461946204602F0AAFF0346F96A9E
:100C5000184603F063F903467B624FF00001786A9F
:100C600003F050FA0346002B42D14FF07E51786AD0
:100C700003F052FA0346002B3AD107F110003B680B
:100C80003A68596800911B68083206CA00F0A3F858
:100C900007F118007B6A07F1100206CA00F059F844
:100CA00007F108003A68FB690093BB6906CA00F0C7
:100CB0006EF87B680CCB07F1080103C900F0CDF892
:100CC00038627B68DB691946386A03F011FA03461B
:100CD000002B0ED07B683A6ADA617B683A681A6149
:100CE0007B687A6A1A6204E000BF02E000BF00E09D
:100CF00000BF5037BD46B0BD90B585B000AF78603D
:100D00003960386802F0C8FB02460B4610461946A7
:100D100001F0D8FA02460B461046194602F0ECFEE6
:100D20000446386802F0B8FB02460B4610461946E6
:100D300000F0E2FC02460B461046194602F0DCFECB
:100D400002467B681C607B685A6078681437BD4631
:100D500090BD90B587B000AFF860381D80E8060000
:100D60003B607B683968184603F024F803461C464C
:100D7000BB683968184603F01DF803461A46FB683D
:100D80001C60FB685A60F8681C37BD4690BD82B095
:100D900090B587B000AFF860381D80E80600FB62B0
:100DA0007B68FA6A1146184602F0FCFE03461C46B0
:100DB000BB683A6B1146184602F0F4FE03461A4629
:100DC000FB681C60FB685A60F8681C37BD46BDE8CC
:100DD000904002B0704782B090B587B000AFF86025
:100DE000381D80E80600FB627B68FA6A11461846E7
:100DF00002F0D6FE03461C46BB683A6B1146184605
:100E000002F0CEFE03461A46FB681C60FB685A607F
:100E1000F8681C37BD46BDE8904002B0704790B5F9
:100E200083B000AF3B4683E803003B683A68114655
:100E3000184602F0BFFF03461C467B687A681146DD
:100E4000184602F0B7FF03461946204602F0AAFEF4
:100E5000034618460C37BD4690BD90B589B002AF29
:100E600007F1080484E80300394681E80C0007F123
:100E700010007B6800933B6807F1080206CAFFF781
:100E8000AAFF07F1100393E80300FFF7C8FF03462A
:100E900018461C37BD4690BD80B582B000AF1C4BD4
:100EA0007B601C4B3B607A683B689A420CD007E041
:100EB0007A68131D7B603B68191D396012681A60DF
:100EC0003B68154A9342F3D3144B3B6004E03B6804
:100ED0001A1D3A6000221A603B68114A9342F6D309
:100EE000104B7B607B68104A23F07F0393600F4BAD
:100EF000002B01D00D4B984703F0D0F90C4B002B81
:100F000001D00B4B9847FFF7EBFC00BFFDE700BF9C
:100F10001C4600000000002048010020480100207D
:100F2000A81600200000000000ED00E00000000016
:100F30000000000080B400AF00BFFDE780B483B0C4
:100F400000AF0346FB80B7F90630002B0BDBFB88B4
:100F500003F01F020649B7F906305B09012000FAC9
:100F600002F241F8232000BF0C37BD4680BC704719
:100F700000E100E090B486B000AF04460846114698
:100F80001A462346FB710346BB710B467B71134621
:100F90003B717B79002B02D04FF0005300E000231F
:100FA0007B613B79002B01D0002301E04FF080539F
:100FB0003B61BB79002B02D04FF4003300E00023EB
:100FC000FB60FB79002B01D10123FB710F4AFB6809
:100FD000536000BF0D4BDB69002BFBD10B4AFB7943
:100FE00013737A693B691343084A43F4401343F08F
:100FF0000E03136000BF054BDB69002BFBD100BF64
:1010000000BF1837BD4690BC704700BF0034004099
:1010100080B400AF074B00221A60064B00225A60D2
:1010200000BF044BDB69002BFBD100BF00BFBD46F6
:1010300080BC70470034004080B500AF3220FFF71D
:101040007DFF2D4B2D4ADA6200BF2B4B5B6803F00E
:101050002003202BF9D0284B4322C3F8A02000BF47
:10106000254BD3F8A03003F04003402BF8D1244B9C
:101070005B69234A43F400535361224B93F8503089
:10108000DBB2204A43F00103DBB282F850301D4B43
:1010900093F83830DBB21B4A43F00203DBB282F82C
:1010A0003830184B93F85130DBB2164A43F0010345
:1010B000DBB282F85130134B93F83830DBB2114A6F
:1010C00043F02003DBB282F838300E4B93F85330F4
:1010D000DBB20C4A43F00303DBB282F85330094B16
:1010E00093F83930DBB2074A43F02003DBB282F8D1
:1010F000393000BF80BD00BF001C00400601010068
:10110000000800400080004180B483B000AF034677
:10111000FB710B4B04225A83094B80221A76084A32
:10112000FB79936200BF064B1B7EDBB203F0020328
:10113000002BF8D000BF00BF0C37BD4680BC704705
:101140000034004080B582B000AF0346FB71094B0C
:101150004FF40072C3F89420FB791846FFF7D4FFD0
:10116000044B4FF40072C3F8982000BF0837BD4607
:1011700080BD00BF0080004180B500AF0123002288
:1011800000210120FFF7F6FE024B1022C3F8942045
:1011900000BF80BD0080004180B500AF034B10222E
:1011A000C3F89820FFF734FF00BF80BD00800041E6
:1011B00080B500AFFFF7E0FFAF20FFF7C3FFFFF7F9
:1011C000EBFF00BF80BD80B582B000AF0346FB716E
:1011D0000B46BB711346BB80FFF7CEFF1520FFF710
:1011E000B1FFFB791033DBB21846FFF78DFFFB79B7
:1011F0001033DBB21846FFF787FF7520FFF7A2FF19
:10120000BB791846FFF780FFBB791846FFF77CFFD4
:101210005C20FFF797FFBB881B0A9BB2DBB2184626
:10122000FFF772FFBB88DBB21846FFF76DFFFFF7D1
:10123000B3FF00BF0837BD4680BD80B582B000AFA8
:10124000FFF79AFF1520FFF77DFF0020FFF75CFFF7
:101250007F20FFF759FF7520FFF774FF0020FFF78D
:1012600053FF7F20FFF750FF5C20FFF76BFF002349
:101270007B6011E000233B6008E00020FFF744FFA3
:101280000020FFF741FF3B6801333B603B687F2B49
:10129000F3DD7B6801337B607B687F2BEADDFFF742
:1012A0007BFF00BF0837BD4680BD000080B582B01F
:1012B00000AFFFF7C1FE2F4B4022C3F888202D4B13
:1012C0004022C3F894202B4B4022C3F89820294B8E
:1012D0008022C3F88820274B1022C3F88820254B92
:1012E0001022C3F89820234B4FF48072C3F8882053
:1012F000204B4FF40072C3F888201E4B4FF400724D
:10130000C3F898201B4B4FF48072C3F89420194BFC
:101310008022C3F89820FFF74BFFFFF72DFFA02096
:10132000FFF710FF3220FFF7EFFEA120FFF70AFFC3
:101330002020FFF7E9FEB220FFF704FFA420FFF70B
:10134000E3FE0020FFF7E0FE0020FFF7DDFEFFF7E1
:1013500074FFFFF721FF00237B6002E07B6801330D
:101360007B607B68044A9342F8DD00BF00BF08370A
:10137000BD4680BD008000413F420F0000F0E0BB51
:10138000F8B504460D4600F0A5FC224606460F4679
:101390002B462046294602F071FB30B920462946EB
:1013A0000022002302F042FB10B930463946F8BD56
:1013B00002F016FF00220023212101601046194689
:1013C00002F0ECF906460F4630463946F8BD00BF3C
:1013D0002DE9F84FBE4B21F000469E4204460D46D3
:1013E0008A4616D9BB4B9E420BD808D0BAF1000FE3
:1013F00040F3C2809AA1D1E90001BDE8F88F00282E
:10140000F4D022462B462046294601F0E7FEBDE8EF
:10141000F88FB14B9E4200F2B480A3F1DE739E427E
:1014200040F29B804FF0FF3B22462B462046294648
:1014300002F08AF802460B468046894602F084F89C
:1014400089A3D3E9002306460F4602F07DF888A35E
:10145000D3E9002301F0C2FE32463B4602F074F8A5
:1014600085A3D3E9002301F0B9FE32463B4602F0E2
:101470006BF883A3D3E9002301F0B0FE32463B466C
:1014800002F062F880A3D3E9002301F0A7FE324600
:101490003B4602F059F87EA3D3E9002301F09EFEFB
:1014A00042464B4602F050F87BA3D3E90023804626
:1014B00089463046394602F047F879A3D3E900233C
:1014C00001F08AFE32463B4602F03EF876A3D3E9AD
:1014D000002301F081FE32463B4602F035F874A34A
:1014E000D3E9002301F078FE32463B4602F02CF8A7
:1014F00071A3D3E9002301F06FFE32463B4602F0B0
:1015000023F802460B464046494601F067FE224654
:101510002B4602F019F8BBF1FF3F02460B4657D0AD
:101520006E4B6F4E03EBCB03D3E9002301F054FE67
:1015300022462B4601F050FE06EBCB0602460B4638
:10154000D6E9000101F048FEBAF1000FBFF65FAF27
:1015500001F100431946BDE8F88F59A3D3E90023F0
:1015600001F03CFE5F4B002202F07EFA00283FF4BF
:1015700059AF204629464AE753A1D1E90001BDE809
:10158000F88F00F0D7FA584B9E4204460D4625D8F6
:10159000A3F550239E424AD802460B4601F01EFE98
:1015A000504B002201F018FE002206460F4620464E
:1015B00029464FF0804301F011FE02460B463046AB
:1015C000394602F0EBF84FF0000B04460D462BE7CE
:1015D0002046294601F000FEBDE8F88F434B9E42AD
:1015E0001AD2434B002201F0F7FD414B06460F464D
:1015F00020462946002201F0A7FF3A4B002201F0C5
:10160000EDFD02460B463046394602F0C7F84FF072
:10161000020B04460D4607E702460B4600203549FB
:1016200002F0BCF84FF0030B04460D46FCE62D4BD0
:10163000002201F0D1FD2B4B06460F4620462946DD
:10164000002201F0CBFD02460B463046394602F03F
:10165000A5F84FF0010B04460D46E5E6AFF3008018
:10166000182D4454FB21F93F11DA22E33AAD903FA3
:10167000EB0D76244B7BA93F513DD0A0660DB13FC9
:101680006E204CC5CD45B73FFF8300922449C23F31
:101690000D5555555555D53F2F6C6A2C44B4A2BFF6
:1016A0009AFDDE522DDEAD3F6D9A74AFF2B0B33FBE
:1016B000711623FEC671BC3FC4EB98999999C93F36
:1016C0009C7500883CE4377E182D4454FB21F9BFFB
:1016D000FFFF0F440000F07FFFFFDB3FA04300004F
:1016E000C04300000000F03FFFFFF23F00800340D6
:1016F0000000F83F0000F0BF1F4A21F00043934272
:101700001BD930B51D4A934287B005D902460B4616
:1017100001F062FD07B030BD02AA00F0C9FB00F085
:101720000304012C17D0022C0BD0E4B9DDE904230B
:10173000DDE9020100F024F8ECE70022002300F0CC
:101740001FB8DDE90423DDE9020100F019F801F119
:10175000004107B030BDDDE90423DDE9020100945A
:1017600000F032F9F3E70124DDE90423DDE90201A9
:10177000009400F029F9CDE7FB21E93FFFFFEF7F5F
:101780002DE9F04F21F00048B8F1795F85B092461D
:101790009B4606460F466BD202F086F9002800F001
:1017A000EA8032463B463046394601F0CDFE74A30E
:1017B000D3E9002304460D4601F0C6FE72A3D3E927
:1017C000002301F00BFD22462B4601F0BDFE70A365
:1017D000D3E9002301F000FD22462B4601F0B4FEC0
:1017E0006DA3D3E9002301F0F9FC22462B4601F05A
:1017F000ABFE6BA3D3E9002301F0EEFC22462B469F
:1018000001F0A2FE68A3D3E9002301F0E7FC224621
:101810002B4601F099FECDE90001654B00222046E0
:10182000294601F091FEDDE90023804689462046E5
:10183000294601F089FE524604460D465B46304675
:10184000394601F081FE02460B462046294601F04A
:10185000C3FC02460B464046494601F0BDFC024629
:101860000B460020534901F0B7FC05B0BDE8F08FEE
:1018700002460B4601F068FE41A3D3E9002304466B
:101880000D4601F061FE40A3D3E9002301F0A6FC60
:1018900022462B4601F058FE3DA3D3E9002301F078
:1018A0009BFC22462B4601F04FFE3BA3D3E90023CD
:1018B00001F094FC22462B4601F046FE38A3D3E902
:1018C000002301F089FC22462B4601F03DFE36A3A1
:1018D000D3E9002301F082FC2B46224601F034FEBE
:1018E000354B9845CDE9000197D9344B98454FF0D9
:1018F000000238D8A8F500132E49002090469946DA
:1019000001F06AFCCDE90201294B0022204629465C
:1019100001F01AFE42464B4601F05EFCDDE9002371
:10192000804689462046294601F00EFE524604466E
:101930000D465B463046394601F006FE02460B4630
:101940002046294601F048FC02460B4640464946DF
:1019500001F042FC02460B46DDE9020101F03CFCCD
:1019600005B0BDE8F08F164BDFF85890CDE90223A3
:101970004FF00008C8E70F49002005B0BDE8F08F20
:10198000D43888BEE9FAA8BDC4B1B4BD9EEE213EEC
:10199000AD529C804F7E923E9015CB19A001FA3E2D
:1019A0007751C1166CC1563F4C5555555555A53FFD
:1019B0000000E03F0000F03F3233D33F0000E93F3A
:1019C0000000E73F0000D23F2DE9F04F994621F09B
:1019D0000043B3F1795F85B0904604460D4604D2CA
:1019E00002F062F8002800F0858022462B4620464F
:1019F000294601F0A9FD06460F4602460B46204641
:101A0000294601F0A1FD3EA3D3E9002382468B467F
:101A10003046394601F098FD3BA3D3E9002301F09D
:101A2000DBFB32463B4601F08FFD39A3D3E90023AF
:101A300001F0D4FB32463B4601F086FD36A3D3E9E4
:101A4000002301F0C9FB32463B4601F07DFD34A383
:101A5000D3E9002301F0C2FB0E9BCDE900019BB34B
:101A6000334B00224046494601F06EFDDDE900237C
:101A7000CDE902015046594601F066FD02460B468B
:101A8000DDE9020101F0A8FB32463B4601F05CFDB6
:101A900042464B4601F0A0FB23A3D3E900230646B0
:101AA0000F465046594601F04FFD02460B46304660
:101AB000394601F093FB02460B462046294601F0C9
:101AC0008BFB05B0BDE8F08F02460B463046394629
:101AD00001F03AFD14A3D3E9002301F07DFB524647
:101AE0005B4601F031FD22462B4601F077FB05B045
:101AF000BDE8F08F2046294605B0BDE8F08F00BF55
:101B00007CD5CF5A3AD9E53DEB9C2B8AE6E55A3E87
:101B10007DFEB157E31DC73ED561C119A0012A3F23
:101B2000A6F810111111813F495555555555C53F1E
:101B30000000E03F21F0004319467047000000001C
:101B40002DE9F84F994653425F4F134329F0004E59
:101B50004EEAD373BB42904604460D463DD84642FA
:101B6000064321F0004A4AEAD676BE4203468B4637
:101B700033D809F1404606F5801616433DD04FEAAA
:101B8000A97606F002065AEA030346EAD1762CD07B
:101B90005EEA020235D0BE4546D0BA4531D0AAEB46
:101BA0000E0ABAF1747F4FEA2A5339DAB9F1000FFD
:101BB00046DA3C3344DA00200021012E58D0022EB0
:101BC00049D086B134A3D3E9002301F005FB34A347
:101BD000D3E9002301F000FB05E022462B464046F6
:101BE000494601F0FBFABDE8F88F022E10D0032E13
:101BF000F9D12DA1D1E90001F5E7BDE8F84FFFF7D4
:101C0000E7BBBBF1000F07DB29A1D1E90001EAE73F
:101C100023A1D1E90001E6E727A1D1E90001E2E72C
:101C200023A1D1E90001C8E7F24506F1FF3623D030
:101C3000022E29D8254B03EBC603D3E90001D2E7D6
:101C400042464B462046294601F0A8FDFFF772FFA9
:101C5000FFF7BEFBB1E710A3D3E9002301F0BCFA04
:101C600002460B460EA1D1E9000101F0B5FABAE730
:101C700001F100431946B6E7022E08D8144B03EBD6
:101C8000C603D3E90001AEE700200021ABE70CA1B9
:101C9000D1E90001A7E700BF075C143326A6A13CE9
:101CA000182D4454FB210940182D4454FB2109C030
:101CB000182D4454FB21F93F182D4454FB21F9BF42
:101CC000182D4454FB21E93F0000F07FE043000061
:101CD000F8430000724A8A432DE9F84F06460F4642
:101CE00000F0A98000290C46034655DD081562D096
:101CF000C4F31302C107A0F2FF3742F4801203D4E9
:101D0000D90F01EB42025B005200002602EBD372B6
:101D10007F105B001624B4464FF400110CEB010059
:101D200090424FEAD3754FEA430303DC00EB010C0A
:101D3000121A0E44013C05EB42024FEA5101EDD16B
:101D4000A04620254FF000400AE043D0510001EBAF
:101D5000D371013D0A464FEA43034FEA500045D094
:101D6000944508EB000EF0DABEF1000F0EEB000810
:101D70000CDBE146A2EB0C019E4588BF01F1FF316F
:101D80004900CC46A3EB0E030444E0E7B8F1000F92
:101D9000EFDB0CF10109EDE721F00042024344D0F2
:101DA00000296BD1DA0A153C5B05002AFAD0D6026D
:101DB00020466CD4144600226400E502114602F16C
:101DC0000102F9D5C2F1200523FA05F52C43934011
:101DD000401A8DE79E4502D94FEA4C01B7E7BEF1A4
:101DE000000F0EEB000822DB0021CBE7194312D0D5
:101DF000DFF8B0A0DFF8B0B0DAE90001DBE90023DA
:101E000001F0EAF9DAE9008902460B464046494604
:101E100001F016FEC8B96508731003F17F5303F58E
:101E2000001303EB075145EAC670BDE8F88FB8F11F
:101E3000000FAEDAD8E702460B4601F085FB3246CA
:101E40003B4601F0CBF9BDE8F88FB4F1FF3FDAE98A
:101E50000001DBE900231ED001F0C0F9DAE90089B6
:101E600002460B464046494601F0E0FDA8B1A31CDE
:101E700004F1020508BF01366D08CDE702460B46A6
:101E800001F0AAF902460B4601F088FCCDE74FF0BD
:101E9000FF3114469CE70136BEE70134BBE700BFC3
:101EA0000000F07F18440000104400000000000013
:101EB0002DE9F04F844B21F000459D428FB08046C4
:101EC0008946144640F28A80804B9D420E4628D8AF
:101ED000002973A3D3E9002340F3A18101F07CF929
:101EE0007B4B9D4206460F4600F089806EA3D3E9E6
:101EF000002301F071F98046894642464B46304640
:101F0000394601F069F968A3D3E9002301F064F9C7
:101F1000C4E90089C4E90201012738460FB0BDE8D1
:101F2000F08F6C4B9D4240F284806B4B9D425DD89C
:101F30004FEA255AAAF2164AA5EB0A51894601F042
:101F4000B3FD01F097FA02460B4640464946CDE9FB
:101F5000082301F041F9614B002201F0F5FA8946AE
:101F6000804601F0A1FD01F085FA02460B4640468D
:101F70004946CDE90A2301F02FF9584B002201F020
:101F8000E3FACDE90C010EAF03254FF000084FF046
:101F9000000977E9020142464B46AB46013D01F09C
:101FA0003BFD0028F5D14E4B01930223009352468E
:101FB0005B46214608A800F0FDF9002E0746ACDA82
:101FC000D4E9002101F10043E168C4E90023A268DB
:101FD00001F10043C4E9022347429EE700220023A7
:101FE000C4E90089C4E90223002796E702460B46AC
:101FF00001F0F2F8C4E90201C4E90001F4E72CA3FE
:10200000D3E9002301F0E8F82BA3D3E90023064627
:102010000F4601F0E1F88046894642464B4630467D
:10202000394601F0D9F824A3D3E9002301F0D4F80C
:102030006EE7FFF77FFD22A3D3E9002380468946A0
:1020400001F082FA274B002201F0C8F801F02CFDC4
:10205000074601F00FFA02460B46CDE9042310A310
:10206000D3E9002301F070FA02460B464046494688
:1020700001F0B2F80CA3D3E9002382468B46DDE9D8
:10208000040101F061FA1F2FCDE902012EDC164B8D
:102090007A1E53F82230AB4228D002460B469AE013
:1020A00000004054FB21F93F3163621A61B4D03D16
:1020B0000000601A61B4D03D7370032E8A19A33BEF
:1020C00083C8C96D305FE43FFB21E93F7BD9024003
:1020D000FB21F93FFB213941FFFFEF7F00007041F9
:1020E000A04400000000E03F20440000DDE902239E
:1020F0005046594601F070F8C1F30A53C3EB15532B
:10210000102B804689464FEA25556ADD62A3D3E944
:102110000023DDE9040101F017FA804689460246F2
:102120000B465046594601F057F802460B465046BA
:102130005946CDE9062392469B4601F04DF84246AA
:102140004B4601F049F856A3D3E90023804689465F
:10215000DDE9040101F0F8F942464B4601F03CF894
:102160000B46024659465046CDE9022301F034F8A9
:10217000C1F30A53ED1A312D804689464CDD4AA33E
:10218000D3E90023DDE9040101F0DEF98046894648
:1021900002460B465046594601F01EF882468B46D1
:1021A00052465B46DDE9060101F016F842464B4611
:1021B00001F012F83EA3D3E9002380468946DDE909
:1021C000040101F0C1F942464B4601F005F8024610
:1021D0000B46CDE902235046594600F0FDFF8046EC
:1021E000894642464B46C4E900895046594600F0AC
:1021F000F3FFDDE9022300F0EFFF002EC4E9020146
:10220000BFF68BAE09F10043C4E9008301F100433E
:10221000C4E902037F4280E6DDE906ABE1E700F0B6
:10222000DDFF274B9D4206460F4618D022A3D3E977
:10223000002300F0D3FF8046894642464B46304695
:10224000394600F0C9FF1CA3D3E9002300F0C6FF04
:10225000C4E90089C4E902014FF0FF375DE60EA32F
:10226000D3E9002300F0BAFF0DA3D3E9002306460B
:102270000F4600F0B3FF8046894642464B46304643
:10228000394600F0A9FF06A3D3E9002300F0A6FF1A
:10229000DEE700BFAFF300800000601A61B4D03DFC
:1022A0007370032E8A19A33B0000002E8A19A33BEA
:1022B000C14920259A837B393163621A61B4D03DCC
:1022C000FB21F93F30B5224A21F00043934287B009
:1022D0001BD9204A934205D902460B4600F07CFFE9
:1022E00007B030BD02AAFFF7E3FD00F003000128AC
:1022F0001FD0022811D018BB0124DDE90423DDE939
:1023000002010094FFF760FBEAE70023009300223C
:102310000023FFF759FB07B030BD0124DDE904239A
:10232000DDE902010094FFF74FFB01F1004107B026
:1023300030BDDDE90423DDE90201FFF721FACFE733
:10234000DDE90423DDE90201FFF71AFAEDE700BF3A
:10235000FB21E93FFFFFEF7F30B5144A21F0004336
:10236000934287B019D9124A934205D902460B46C7
:1023700000F032FF07B030BD02AAFFF799FD44001C
:1023800004F00204C4F10104DDE90423DDE90201E3
:10239000009400F01DFC07B030BD01230093002223
:1023A000002300F015FC07B030BD00BFFB21E93F62
:1023B000FFFFEF7F2DE9F04FADF51B7D9C460C91A3
:1023C000BD4BA49953F82130059312F1140F0CF171
:1023D000FF3381460393C0F2AE82B849D31E81FB1E
:1023E0000301DB17C3EBA10307930133A3EB8303C3
:1023F000DB00D318079A0D930CF1FF33D61A059A18
:1024000012EB03081CD408F10108DDF894A2B044D3
:1024100022AF00240025E34608E05AF8260001F028
:1024200029F801364645E7E8020108D0002EF4DA23
:102430000136204629464645E7E80201F6D1DC464A
:10244000059B002BA9F108030493B8BF4FEACC0603
:1024500037DB22AADDF80C90CDF808C002EBCC0ADD
:10246000059A0DF5E47B4FEACC06624403EBCC08F9
:102470004B460092D94606969B46039B002BC0F222
:102480009B81049E57460024002577E90223F6E944
:10249000020101F059F802460B462046294600F099
:1024A0009DFE464504460D46EFD1009B0BF1010B06
:1024B0009B45E9E802450AF1080ADED1DDF808C0CB
:1024C000069E049B059A0D9FCDF82CC003EB060ACF
:1024D0000EAB03EB8203043B08930EAB03EB8206C7
:1024E000CDE909A693469AAB03EBCB0353E9284504
:1024F000BBF1000F4FEACB0300932BDD0DF5E47A1F
:102500000AEB03080DF1380902976D4B00222046B3
:10251000294601F019F801F0C7FA00F0ABFF694B4A
:10252000002206460F4601F00FF802460B462046F1
:10253000294600F051FE01F0B7FA78E9022349F884
:10254000040B3946304600F049FED04504460D469E
:10255000DBD1029F204629463A4600F041FD002289
:102560004FF07F5304460D4600F0EEFF00F0ACFD47
:10257000554B002200F0E8FF02460B462046294654
:1025800000F02AFE0D46044601F08EFA064600F0E1
:1025900071FF02460B462046294600F01DFE002F23
:1025A0008046894640F392800BF1FF300EAAC7F1B6
:1025B000180352F8202042FA03F404FA03F3D21A63
:1025C000C7F117010EAB42FA01F5002D43F82020A8
:1025D000264400F3D980002200234046494601F0FA
:1025E0001BFA002800F05082059B9B450DDD0EABC9
:1025F0000A9803EB8B03002253F8041D834242EA3E
:102600000102F9D1002A40F0DA80059B0EAA013BB5
:1026100052F82330002B40F0CB80089A012352F867
:10262000041D01330029FAD05B440BF1010807991E
:102630000B9A009E029308EB010A0AF1804AA599C1
:1026400006970AF1FF3A5A4401EB8A0A22A901EBE4
:10265000C209DDF824B0CDF800A072AA1644009B90
:1026600053F8040F009300F005FF039B002BE9E8EB
:1026700002011DDB049FCA46002400257AE90223DB
:10268000F7E9020100F060FF02460B4620462946AA
:1026900000F0A4FD5F4504460D46EFD1029B08F112
:1026A00001084345E6E90245D9DA069F9B461AE749
:1026B00000240025F2E700BFE8450000ABAAAA2AE3
:1026C0000000703E000070410000204053D10BF12B
:1026D000FF330EAA52F82350ED15002D7FF77BAF84
:1026E000BBF1000F06F1010640F33B820EAB002266
:1026F00053F8044B002C3AD0C4F1807443F8044CD6
:102700006FF07F4003E01968411A43F8041B01325F
:102710009345F8DC0124002F0DDD012F3DD0022F61
:1027200009D10BF1FF320EAB0EA953F82230C3F3DF
:10273000150341F82230022D7FF44DAF42464B463F
:102740009149002000F048FD80468946002C3FF466
:1027500042AF3A468C49002000F042FC02460B464C
:102760004046494600F038FD8046894633E701324D
:102770009345BDDCCFE7854B002201F06BF90028C3
:1027800040F0C780054626E7BBF1000F06F10106C1
:10279000D8BF0024AADC012FC1D10BF1FF320EAB50
:1027A0000EA953F82230C3F3160341F82230C2E7D2
:1027B0000BF1010843463AE70024002575E60D9B1E
:1027C0000BF1FF34A3F118020EABCDE9035653F819
:1027D00024300D9263B90BF18043013B0EA901EB4C
:1027E000830353F8041D013C183A0029F9D00D92D7
:1027F0000D9A6549002000F0F3FB002C06460F46B9
:10280000C0F2BB8104F1010A0EAB03EB8A054FEA6B
:10281000CA0272ABDFF8789103EBCA0A4FF00008E6
:10282000934655F8040D00F025FE32463B4600F075
:102830008BFE4B466AE9020142463046394600F0BB
:1028400083FE0EAB9D4206460F46EAD1ABF108036C
:1028500072A95A4601EB030A0DF594784FF000096E
:10286000CDE9064243465246A346CA46DDF81490D7
:10287000CDF81480B9F1000FC0F28380DFF8148125
:1028800000931746002600240025029201E05645D9
:1028900010DCF8E90223F7E8020100F055FE0246D9
:1028A0000B462046294600F099FC0136B145044606
:1028B0000D46ECDA009B029A0BF1FF3BBBF1FF3FA8
:1028C000E3E802450AF1010AA2F10802D2D1A49B71
:1028D000DDF81480022BDDE906425DDC002B2FDCE5
:1028E00010D108EB02040020002174E9022300F05B
:1028F00075FC4445F9D1039B002B40F02E810C9BC5
:10290000C3E90001049B03F007000DF51B7DBDE842
:10291000F08FBBF1000F06F10106C8BF02253FF79B
:10292000E5AE42464B461849002000F055FC022512
:10293000804689464FE600216FF01703079158E55E
:1029400008EB02050026002775E9022330463946C8
:1029500000F044FC454506460F46F5D13B46DDE90F
:102960004A01324600F038FC039B002B00F0DA806D
:102970000C9D07F10043C5E90063002C40F0D680B0
:10298000DEE00024002597E70000F03F0000E03F74
:102990000000703EA0450000A49B032BB2D1002C88
:1029A00000F0FB8008EBC4054FEAC40AD5E90067D4
:1029B000CDE905A50095A946029459E9024530469E
:1029C000394622462B4600F009FCB246BB46064675
:1029D0000F4632463B462046294600F0FDFB524654
:1029E0005B4600F0FBFBC9E9000169E90267C145EC
:1029F000E3D1029C012CDDE905A500F0CE80D5E9EC
:102A00000045009E08F1080B474656E9028920461A
:102A1000294642464B46CDE9004500F0DFFB04461F
:102A20000D4622462B464046494600F0D5FBDDE9DF
:102A3000002300F0D3FBC6E9000166E90245B34577
:102A4000E3D10AF10804B8463C4407F11005002020
:102A5000002174E9022300F0C1FBA542F9D1039BD8
:102A6000D8E90278DDE94A45002B46D10C9BC3E941
:102A70000401C3E90045C3E90278049B03F00700A1
:102A80000DF51B7DBDE8F08FCDE903560D9E404648
:102A90004946724200F0A4FA4A4B00225F46804643
:102AA000894600F0D7FFF8B1474B0022404649461F
:102AB00000F04AFD00F0F8FF054600F0DBFC414B5A
:102AC000002200F041FD0B4602464946404600F018
:102AD00083FB00F0E9FF7C1C0EAB183643F82B009B
:102AE0000D9643F8245083E64046494600F0DCFF4B
:102AF0000EAB5C4643F82B007AE6264605F100440F
:102B00000C9D08F10043C5E9027301F10043C5E9DA
:102B10000403049B03F00700C5E900640DF51B7D69
:102B2000BDE8F08F0C9BC3E9006764B10125F8E9AB
:102B30000223013500F052FBAC42F8DA039B13B1DB
:102B400001F1004319460C9BC3E90201049B03F009
:102B500007000DF51B7DBDE8F08F01F1004319461C
:102B6000CDE6022D7FF437AD02460B460020174913
:102B700000F032FB804689462DE5A49B022B06DC43
:102B8000002B0DDC7FF4BEAE00200021B3E6A49B39
:102B9000032B7FF4B7AE0DF59478002000215EE79B
:102BA000039BDDE94A0133B10C9C00224FF0004346
:102BB000C4E90023C4E70C9C00220023C4E90023DD
:102BC000C1E700BF000070410000703E0000F03F10
:102BD0002DE9F04F9946CE4B21F000479F4287B038
:102BE000904682468B460E4646D800F05DFF05466D
:102BF000002861D1109B5246013313433B4300F040
:102C0000DC81109B012B00F0E58142464B4650468B
:102C1000594600F0E3FA02460B460F460020BD4934
:102C200000F0BCFD2E46CDE9000152465B46284629
:102C30002C460D46394600F0CFFA02460B46404678
:102C4000494600F0C9FA32462B4600F07DFC324678
:102C500082468B462B463046394600F075FCAE4B1B
:102C6000002200F0BBFA02460B465046594600F0DF
:102C7000B5FADDE9002301E1A84B9F421CD90029E8
:102C8000C0F2948152465B4683A1D1E9000100F075
:102C9000A3FA42464B4604460D4681A1D1E9000104
:102CA00000F09AFA22462B4600F098FA4FF00008FE
:102CB00082468B464FF0000952465B4650465946C5
:102CC00000F042FC02460B46CDE9002300F03CFC3C
:102CD000DDE9002304460D465046594600F034FC19
:102CE00071A3D3E90023CDE902012046294600F073
:102CF0002BFC6FA3D3E9002300F070FA22462B4689
:102D000000F022FC6CA3D3E9002300F067FA22460E
:102D10002B4600F019FC6AA3D3E9002300F05EFA09
:102D200022462B4600F010FC67A3D3E9002300F0F5
:102D300055FA22462B4600F007FC65A3D3E9002391
:102D400000F04CFADDE9002300F0FEFB62A3D3E9BA
:102D50000023CDE904012046294600F0F5FB60A3DD
:102D6000D3E9002300F03AFA22462B4600F0ECFBB0
:102D70005DA3D3E9002300F031FA22462B4600F090
:102D8000E3FB5BA3D3E9002300F028FA22462B469D
:102D900000F0DAFB58A3D3E9002300F01FFA224623
:102DA0002B4600F0D1FB56A3D3E9002300F016FA1E
:102DB00002460B46DDE9040100F010FADDE90223CA
:102DC00000F0C2FB42464B4600F008FADDE9002362
:102DD00000F0BAFB42464B4600F000FA4AA3D3E9A2
:102DE000002304460D46DDE9020100F0ADFB22465A
:102DF0002B4600F0F3F90B460246804689465046C2
:102E0000594600F0EBF9454B9F4204460D4600F24F
:102E10008780109B012B39D000260F4602460B46B7
:102E200000203C49CDE9006700F0B8FC5246CDE9EE
:102E300002015B460D463046394600F0CDF90246A8
:102E40000B464046494600F0C7F932462B4600F093
:102E50007BFB324682468B462B463046394600F095
:102E600073FB2D4B002200F0B9F902460B46504689
:102E7000594600F0B3F9DDE90223344600F064FB63
:102E800022462B4600F0AAF904460D462046294664
:102E900007B0BDE8F08F00BF182D4454FB21E93F77
:102EA000075C143326A6813CD47ABF74702AFB3E9B
:102EB000E9A7F0320FB8123F68108D1AF726303F9D
:102EC0001583E0FEC8DB573F93846EE9E326823F1B
:102ED000FE41B31BBAA1AB3F735360DBCB75F3BEAE
:102EE000A69237A0887E143F0165F2F2D844433F92
:102EF000280356C9226D6D3F37D60684F464963F89
:102F00007AFE10111111C13F635555555555D53FE6
:102F1000FFFF2F3E0000F0BF0000F03F2794E53F89
:102F2000109800F0A7FA2246CDE900012B46204672
:102F3000294600F009FBCDE9020120462946DDE9DA
:102F4000004522462B4600F049F902460B46DDE9D2
:102F5000020100F023FC42464B4600F03DF90246D8
:102F60000B465046594600F037F902460B4600F032
:102F700035F902460B462046294600F02DF94FEA66
:102F8000A67A0AF0020A0446CAF101000D4600F0D2
:102F900071FA02460B462046294600F0D5FA04464F
:102FA0000D462046294607B0BDE8F08F01F10043E9
:102FB0009B4609F10043994664E650465946FEF7A0
:102FC000B9FD02460B460020044900F0E7FB044629
:102FD0000D465BE754465D4658E700BF0000F03FF2
:102FE0002DE9F0411646C1F30A52074688460B46C2
:102FF00052BB21F00043034324D02D4B002200F0AC
:10300000A3FA2C4B9E420746884642DBC1F30A5284
:103010000B46363A4CF250318E421EDC164440F2DA
:10302000FE72964219DC002E23DC16F1350F27DBE9
:103030006FF31E53363643EA065138461E4B0022C4
:1030400000F082FABDE8F08140F2FF7C6245E1D1F8
:10305000024600F0C3F8BDE8F08111A3D3E90023D4
:10306000454663F31E052946144800F06DFABDE895
:10307000F0816FF31E53384643EA0651BDE8F081F4
:1030800008F0004343F0D27141F4B7310C4841F0ED
:103090001F0105A3D3E9002300F056FABDE8F08133
:1030A0009C7500883CE4377E59F3F8C21F6EA50179
:1030B00000005043B03CFFFF0000903C9C7500882E
:1030C00059F3F8C200000000C1F30A5C2DE9F04199
:1030D000ACF2FF35132D02460B460C46064632DC99
:1030E000002D20DBDFF8E08048FA05F801EA080C43
:1030F0005CEA000C0F462BD031A3D3E9002300F08B
:103100006DF80022002300F0AFFC40B1002C03DA80
:103110004FF480132B411F4427EA08040026214660
:103120003046BDE8F08126A3D3E9002300F056F82D
:103130000022002300F098FC0028F0D0002C27DBB0
:1031400000263446EBE7332D06DDB5F5806F1CD045
:1031500010461946BDE8F081ACF2134C4FF0FF3732
:1031600027FA0CF70742F3D015A3D3E9002300F0A8
:1031700035F80022002300F077FC0028CFD0002C87
:1031800033460CDB23EA0706C9E700F027F8E1E73E
:1031900024F0004426430DD14FF00044BFE7142D26
:1031A00006D0C5F134050122AA401344B342E9D246
:1031B0000134E7E7054C0026B1E700BFAFF300801C
:1031C0009C7500883CE4377EFFFF0F000000F0BFD5
:1031D00081F0004102E000BF83F0004330B54FEAC8
:1031E00041044FEA430594EA050F08BF90EA020F35
:1031F0001FBF54EA000C55EA020C7FEA645C7FEAC8
:10320000655C00F0E2804FEA5454D4EB5555B8BFEA
:103210006D420CDD2C4480EA020281EA030382EA5B
:10322000000083EA010180EA020281EA0303362DED
:1032300088BF30BD11F0004F4FEA01314FF4801CC0
:103240004CEA113102D0404261EB410113F0004FD2
:103250004FEA03334CEA133302D0524263EB430389
:1032600094EA050F00F0A780A4F10104D5F1200E27
:103270000DDB02FA0EFC22FA05F2801841F1000182
:1032800003FA0EF2801843FA05F359410EE0A5F156
:1032900020050EF1200E012A03FA0EFC28BF4CF087
:1032A000020C43FA05F3C01851EBE37101F000453D
:1032B00007D54FF0000EDCF1000C7EEB00006EEB4A
:1032C0000101B1F5801F1BD3B1F5001F0CD34908D4
:1032D0005FEA30004FEA3C0C04F101044FEA44522B
:1032E00012F5800F80F09A80BCF1004F08BF5FEAB2
:1032F000500C50F1000041EB045141EA050130BD92
:103300005FEA4C0C404141EB0101013C28BFB1F5A3
:10331000801FE9D291F0000F04BF01460020B1FAEE
:1033200081F308BF2033A3F10B03B3F120020CDAC1
:103330000C3208DD02F1140CC2F10C0201FA0CF09F
:1033400021FA02F10CE002F11402D8BFC2F1200C04
:1033500001FA02F120FA0CFCDCBF41EA0C019040BA
:10336000E41AA2BF01EB0451294330BD6FEA040403
:103370001F3C1CDA0C340EDC04F11404C4F12002EE
:1033800020FA04F001FA02F340EA030021FA04F300
:1033900045EA030130BDC4F10C04C4F1200220FA57
:1033A00002F001FA04F340EA0300294630BD21FA95
:1033B00004F0294630BD94F0000F83F4801306BF5B
:1033C00081F480110134013D4EE77FEA645C18BF4F
:1033D0007FEA655C29D094EA050F08BF90EA020FE6
:1033E00005D054EA000C04BF1946104630BD91EADE
:1033F000030F1EBF0021002030BD5FEA545C05D1E1
:103400004000494128BF41F0004130BD14F580041F
:103410003CBF01F5801130BD01F0004545F0FE4193
:1034200041F470014FF0000030BD7FEA645C1ABFC8
:10343000194610467FEA655C1CBF0B46024650EAFF
:10344000013406BF52EA033591EA030F41F400212B
:1034500030BD00BF90F0000F04BF0021704730B5B1
:103460004FF4806404F132044FF000054FF0000186
:1034700050E700BF90F0000F04BF0021704730B547
:103480004FF4806404F1320410F0004548BF40421C
:103490004FF000013EE700BF42004FEAE2014FEA71
:1034A00031014FEA02701FBF12F07F4393F07F4F4C
:1034B00081F06051704732F07F4208BF704793F04F
:1034C0007F4F04BF41F40021704730B54FF4607462
:1034D00001F0004521F000411CE700BF50EA010265
:1034E00008BF704730B54FF000050AE050EA01020E
:1034F00008BF704730B511F0004502D5404261EB7E
:1035000041014FF4806404F132045FEA915C3FF4BE
:10351000D8AE4FF003025FEADC0C18BF03325FEA5B
:10352000DC0C18BF033202EBDC02C2F1200300FA0C
:1035300003FC20FA02F001FA03FE40EA0E0021FA31
:1035400002F11444BDE600BF70B54FF0FF0C4CF41F
:10355000E06C1CEA11541DBF1CEA135594EA0C0FD1
:1035600095EA0C0F00F0DEF82C4481EA030621EA0C
:103570004C5123EA4C5350EA013518BF52EA033547
:1035800041F4801143F4801338D0A0FB02CE4FF0F9
:103590000005E1FB02E506F00042E0FB03E54FF029
:1035A0000006E1FB03569CF0000F18BF4EF0010E21
:1035B000A4F1FF04B6F5007F64F5407404D25FEA1D
:1035C0004E0E6D4146EB060642EAC62141EA5551D0
:1035D0004FEAC52040EA5E504FEACE2EB4F1FD0C12
:1035E00088BFBCF5E06F1ED8BEF1004F08BF5FEA90
:1035F000500E50F1000041EB045170BD06F0004642
:1036000046EA010140EA020081EA0301B4EB5C04EE
:10361000C2BFD4EB0C0541EA045170BD41F48011E6
:103620004FF0000E013C00F3AB8014F1360FDEBF0B
:10363000002001F0004170BDC4F10004203C35DAE7
:103640000C341BDC04F11404C4F1200500FA05F36A
:1036500020FA04F001FA05F240EA020001F000420B
:1036600021F0004110EBD37021FA04F642EB060181
:103670005EEA430E08BF20EAD37070BDC4F10C04AB
:10368000C4F1200500FA04F320FA05F001FA04F26F
:1036900040EA020001F0004110EBD37041F100015B
:1036A0005EEA430E08BF20EAD37070BDC4F1200566
:1036B00000FA05F24EEA020E20FA04F301FA05F2CE
:1036C00043EA020321FA04F001F0004121FA04F276
:1036D00020EA020000EBD3705EEA430E08BF20EA46
:1036E000D37070BD94F0000F0FD101F00046400080
:1036F00041EB010111F4801F08BF013CF7D041EA02
:10370000060195F0000F18BF704703F00046520005
:1037100043EB030313F4801F08BF013DF7D043EAD6
:103720000603704794EA0C0F0CEA135518BF95EA8C
:103730000C0F0CD050EA410618BF52EA4306D1D113
:1037400081EA030101F000414FF0000070BD50EA32
:10375000410606BF1046194652EA430619D094EABC
:103760000C0F02D150EA013613D195EA0C0F05D1A6
:1037700052EA03361CBF104619460AD181EA0301FA
:1037800001F0004141F0FE4141F470014FF00000B2
:1037900070BD41F0FE4141F4780170BD70B54FF04D
:1037A000FF0C4CF4E06C1CEA11541DBF1CEA1355CD
:1037B00094EA0C0F95EA0C0F00F0A7F8A4EB0504AF
:1037C00081EA030E52EA03354FEA013100F08880A6
:1037D0004FEA03334FF0805545EA131343EA12636F
:1037E0004FEA022245EA111545EA10654FEA002624
:1037F0000EF000419D4208BF964244F1FD0404F5DD
:10380000407402D25B084FEA3202B61A65EB030538
:103810005B084FEA32024FF480104FF4002CB6EBF5
:10382000020E75EB030E22BFB61A754640EA0C0075
:103830005B084FEA3202B6EB020E75EB030E22BFB5
:10384000B61A754640EA5C005B084FEA3202B6EBF6
:10385000020E75EB030E22BFB61A754640EA9C00B5
:103860005B084FEA3202B6EB020E75EB030E22BF85
:10387000B61A754640EADC0055EA060E18D04FEA43
:10388000051545EA16754FEA06164FEAC30343EAE3
:1038900052734FEAC2025FEA1C1CC0D111F4801FB0
:1038A0000BD141EA00014FF000004FF0004CB6E7A9
:1038B00011F4801F04BF01430020B4F1FD0C88BF48
:1038C000BCF5E06F3FF6AFAEB5EB030C04BFB6EB53
:1038D000020C5FEA500C50F1000041EB045170BD46
:1038E0000EF0004E4EEA113114EB5C04C2BFD4EB73
:1038F0000C0541EA045170BD41F480114FF0000EF7
:10390000013C90E645EA060E8DE60CEA135594EA72
:103910000C0F08BF95EA0C0F3FF43BAF94EA0C0F75
:103920000AD150EA01347FF434AF95EA0C0F7FF4EA
:1039300025AF104619462CE795EA0C0F06D152EA3E
:1039400003353FF4FDAE1046194622E750EA410622
:1039500018BF52EA43067FF4C5AE50EA41047FF433
:103960000DAF52EA43057FF4EBAE12E74FF0FF3C98
:1039700006E000BF4FF0010C02E000BF4FF0010C69
:103980004DF804CD4FEA410C7FEA6C5C4FEA430CE2
:1039900018BF7FEA6C5C1BD001B050EA410C0CBF31
:1039A00052EA430C91EA030F02BF90EA020F002093
:1039B000704710F1000F91EA030F58BF994208BFFA
:1039C00090422CBFD8176FEAE37040F001007047B7
:1039D0004FEA410C7FEA6C5C02D150EA013C07D10E
:1039E0004FEA430C7FEA6C5CD6D152EA033CD3D059
:1039F0005DF8040B704700BF8446104662468C4653
:103A00001946634600E000BF01B5FFF7B7FF002885
:103A100048BF10F1000F01BD4DF808EDFFF7F4FFAE
:103A20000CBF012000205DF808FB00BF4DF808ED39
:103A3000FFF7EAFF34BF012000205DF808FB00BF5C
:103A40004DF808EDFFF7E0FF94BF012000205DF87E
:103A500008FB00BF4DF808EDFFF7CEFF94BF012033
:103A600000205DF808FB00BF4DF808EDFFF7C4FF2C
:103A700034BF012000205DF808FB00BF4FEA410C75
:103A80007FEA6C5C02D150EA013C0AD14FEA430C58
:103A90007FEA6C5C02D152EA033C02D14FF0000095
:103AA00070474FF0010070474FEA410212F50012D3
:103AB00015D211D56FF47873B3EB625212D94FEA75
:103AC000C12343F0004343EA505311F0004F23FA5F
:103AD00002F018BF404270474FF00000704750EAB4
:103AE000013005D111F0004008BF6FF00040704771
:103AF0004FF00000704700BF4FEA4102B2F1E043CF
:103B000024BFB3F5001CDCF1FE5C0DD901F0004CC4
:103B10004FEAC0024CEA5070B2F1004F40EB830014
:103B200008BF20F00100704711F0804F21D113F140
:103B30003872BCBF01F00040704741F480114FEA79
:103B40005252C2F11802C2F1200C10FA0CF320FA02
:103B500002F018BF40F001004FEAC1234FEAD3231F
:103B600003FA0CFC40EA0C0023FA02F34FEA430389
:103B7000CCE77FEA625307D150EA01331EBF4FF012
:103B8000FE4040F44000704701F0004040F0FE402D
:103B900040F40000704700BF80F0004002E000BF2A
:103BA00081F0004142001FBF5FEA410392EA030F28
:103BB0007FEA226C7FEA236C6AD04FEA1262D2EB72
:103BC0001363C1BFD218414048404140B8BF5B4277
:103BD000192B88BF704710F0004F40F4000020F010
:103BE0007F4018BF404211F0004F41F4000121F026
:103BF0007F4118BF494292EA030F3FD0A2F1010270
:103C000041FA03FC10EB0C00C3F1200301FA03F1AD
:103C100000F0004302D5494260EB4000B0F5000FD0
:103C200013D3B0F1807F06D340084FEA310102F18F
:103C30000102FE2A51D2B1F1004F40EBC25008BF41
:103C400020F0010040EA03007047490040EB00000B
:103C5000013A28BFB0F5000FEDD2B0FA80FCACF10C
:103C6000080CB2EB0C0200FA0CF0AABF00EBC25039
:103C700052421843BCBFD0401843704792F0000F27
:103C800081F4000106BF80F400000132013BB5E77A
:103C90004FEA41037FEA226C18BF7FEA236C21D0F0
:103CA00092EA030F04D092F0000F08BF0846704755
:103CB00090EA010F1CBF0020704712F07F4F04D123
:103CC000400028BF40F00040704712F100723CBF36
:103CD00000F50000704700F0004343F0FE4040F460
:103CE000000070477FEA226216BF08467FEA23631E
:103CF0000146420206BF5FEA412390EA010F40F409
:103D0000800070474FF0000304E000BF10F0004354
:103D100048BF40425FEA000C08BF704743F096433B
:103D200001464FF000001CE050EA010208BF704756
:103D30004FF000030AE000BF50EA010208BF7047DD
:103D400011F0004302D5404261EB41015FEA010CF2
:103D500002BF84460146002043F0B64308BFA3F1EA
:103D60008053A3F50003BCFA8CF2083AA3EBC253CC
:103D700010DB01FA02FC634400FA02FCC2F12002EB
:103D8000BCF1004F20FA02F243EB020008BF20F022
:103D90000100704702F1200201FA02FCC2F1200288
:103DA00050EA4C0021FA02F243EB020008BF20EA7D
:103DB000DC7070474FF0FF0C1CEAD0521EBF1CEAAB
:103DC000D15392EA0C0F93EA0C0F6FD01A4480EA99
:103DD000010C400218BF5FEA41211ED04FF0006382
:103DE00043EA501043EA5111A0FB01310CF00040AE
:103DF000B1F5000F3EBF490041EAD3715B0040EAD4
:103E0000010062F17F02FD2A1DD8B3F1004F40EBA3
:103E1000C25008BF20F00100704790F0000F0CF076
:103E2000004C08BF49024CEA502040EA51207F3A3A
:103E3000C2BFD2F1FF0340EAC250704740F4000015
:103E40004FF00003013A5DDC12F1190FDCBF00F006
:103E500000407047C2F10002410021FA02F1C2F1B4
:103E6000200200FA02FC5FEA310040F1000053EA50
:103E70004C0308BF20EADC70704792F0000F00F09E
:103E8000004C02BF400010F4000F013AF9D040EAA4
:103E90000C0093F0000F01F0004C02BF490011F438
:103EA000000F013BF9D041EA0C018FE70CEAD15336
:103EB00092EA0C0F18BF93EA0C0F0AD030F0004CB6
:103EC00018BF31F0004CD8D180EA010000F000406A
:103ED000704790F0000F17BF90F0004F084691F028
:103EE000000F91F0004F14D092EA0C0F01D1420262
:103EF0000FD193EA0C0F03D14B0218BF084608D12B
:103F000080EA010000F0004040F0FE4040F4000074
:103F1000704740F0FE4040F4400070474FF0FF0C07
:103F20001CEAD0521EBF1CEAD15392EA0C0F93EA4E
:103F30000C0F69D0A2EB030280EA010C49024FEAA0
:103F4000402037D04FF0805343EA111143EA101359
:103F50000CF000408B4238BF5B0042F17D024FF411
:103F6000000C8B4224BF5B1A40EA0C00B3EB510FEC
:103F700024BFA3EB510340EA5C00B3EB910F24BFD5
:103F8000A3EB910340EA9C00B3EBD10F24BFA3EB5A
:103F9000D10340EADC001B0118BF5FEA1C1CE0D122
:103FA000FD2A3FF650AF8B4240EBC25008BF20F0D5
:103FB000010070470CF0004C4CEA50207F32C2BF29
:103FC000D2F1FF0340EAC250704740F400004FF0C6
:103FD0000003013A37E792F0000F00F0004C02BFF7
:103FE000400010F4000F013AF9D040EA0C0093F0C1
:103FF000000F01F0004C02BF490011F4000F013B1B
:10400000F9D041EA0C0195E70CEAD15392EA0C0F82
:1040100008D142027FF47DAF93EA0C0F7FF470AFBA
:10402000084676E793EA0C0F04D14B023FF44CAFFD
:1040300008466EE730F0004C18BF31F0004CCAD192
:1040400030F000427FF45CAF31F000437FF43CAFCE
:104050005FE700BF4FF0FF3C06E000BF4FF0010CF0
:1040600002E000BF4FF0010C4DF804CD4FEA4002D2
:104070004FEA41037FEA226C18BF7FEA236C11D01C
:1040800001B052EA530C18BF90EA010F58BFB2EBCF
:10409000030088BFC81738BF6FEAE17018BF40F04F
:1040A000010070477FEA226C02D15FEA402C05D103
:1040B0007FEA236CE4D15FEA412CE1D05DF8040B88
:1040C000704700BF844608466146FFE70FB5FFF71B
:1040D000C9FF002848BF10F1000F0FBD4DF808EDD3
:1040E000FFF7F4FF0CBF012000205DF808FB00BFC4
:1040F0004DF808EDFFF7EAFF34BF012000205DF81E
:1041000008FB00BF4DF808EDFFF7E0FF94BF01206A
:1041100000205DF808FB00BF4DF808EDFFF7D2FF67
:1041200094BF012000205DF808FB00BF4DF808EDAA
:10413000FFF7C8FF34BF012000205DF808FB00BF77
:104140004FEA4002B2F1FE4F0FD34FF09E03B3EBA4
:1041500012620DD94FEA002343F0004310F0004FE4
:1041600023FA02F018BF404270474FF0000070473A
:1041700012F1610F01D1420205D110F0004008BFD9
:104180006FF0004070474FF00000704742000ED2C1
:10419000B2F1FE4F0BD34FF09E03B3EB126209D482
:1041A0004FEA002343F0004323FA02F070474FF038
:1041B0000000704712F1610F01D1420202D14FF0AD
:1041C000FF3070474FF00000704700BF024B13B143
:1041D000024800F00BB8704700000000ED420000FC
:1041E000014B1868704700BF0400002000230146FF
:1041F0001A46184600F092B8830730B547D0541ECF
:10420000002A3ED0CAB2034601E0013C39D303F88C
:10421000012B9D07F9D1032C2CD9CDB205EB052537
:104220000F2C05EB054535D9A4F1100222F00F0C37
:1042300003F1100EE6444FEA121C1A46C2E900557B
:10424000C2E9025510327245F8D10CF1010214F0A6
:104250000C0F03EB021204F00F0C13D0ACF10403AB
:1042600023F003030433134442F8045B9342FBD16D
:104270000CF003042CB1C9B21C4403F8011BA34287
:10428000FBD130BD64461346002CF4D1F9E7034658
:104290001446C0E71A46A446E0E700BF70B50F4BCE
:1042A0000F4DAB42A3EB050607D0B610002455F81E
:1042B000043B01349847A642F9D800F09DF9094D16
:1042C000094B5E1BAB424FEAA60606D0002455F808
:1042D000043B01349847A642F9D870BD044600005B
:1042E00004460000044600000C46000038B5074DA7
:1042F000074C2C1BA41005D0013C55F8043D9847F1
:10430000002CF9D1BDE8384000F080B91C4600000F
:1043100018460000704700BF704700BF2DE9F84302
:104320001B4D0646286898460F469146FFF7F2FF58
:10433000184B1C681CB3286865681F2D22DC4EB919
:104340006B1C0235636044F82570FFF7E5FF002021
:10435000BDE8F88304EB85010123C1F88890D4F807
:104360008821AB401A43022EC4F88821C1F8088185
:10437000E6D1D4F88C211A43C4F88C21E0E7064C2E
:104380001C60D8E7FFF7C8FF4FF0FF30E0E700BF41
:10439000000000201015002018150020000000006B
:1043A000E2652F227F2B7A3C075C143326A6813CE2
:1043B000BDCBF07A8807703C075C143326A6913C8D
:1043C0004FBB610567ACDD3F182D4454FB21E93F2D
:1043D0009BF681D20B73EF3F182D4454FB21F93F1C
:1043E0000000000000000080182D4454FB2109400B
:1043F000182D4454FB2109C0182D4454FB21E9BF5A
:10440000D221337F7CD90240D221337F7CD902C0B4
:1044100059F3F8C21F6EA501000000000000F03F34
:10442000FB21F93FFB2109407CD91240FB211940B7
:104430007A6A1F407CD92240BBFD2540FB212940E0
:104440003A462C407A6A2F405C4731407CD9324052
:104450009C6B3440BBFD3540DB8F3740FB2139403E
:104460001BB43A403A463C405AD83D407A6A3F40F5
:104470004C7E40405C4741406C1042407CD94240F9
:104480008CA243409C6B4440AC344540BBFD45404E
:10449000CBC64640DB8F4740EB584840FB214940A4
:1044A00083F9A200444E6E00FC291500D157270065
:1044B000DD34F50062DBC0003C999500419043007B
:1044C0006351FE00BBDEAB00B761C5003A6E24004D
:1044D000D24D42004906E00009EA2E001C92D100AC
:1044E000EB1DFE0029B11C00E83EA700F535820057
:1044F00044BB2E009CE98400B4267000417E5F001E
:10450000D6913900538339009CF439008B5F8400C5
:1045100028F9BD00F81F3B00DEFF97000F9805004B
:10452000112FEF000A5A8B006D1F6D00CF7E3600F1
:1045300009CB2700464FB7009E663F002DEA5F007B
:10454000BA277500E5EBC7003D7BF100F73907009E
:1045500092528A00FB6BEA001FB15F00085D8D007C
:10456000300356007BFC4600F0AB6B0020BCCF0054
:1045700036F49A00E3A91D005E619100081BE60075
:1045800085996500A0145F008D40680080D8FF0009
:1045900027734D0006063100CA561500C9A87300DE
:1045A0007BE260006B8CC00000000040FB21F93F03
:1045B000000000002D44743E000000809846F83C46
:1045C0000000006051CC783B00000080831BF03974
:1045D0000000004020257A38000000802282E33667
:1045E000000000001DF36935020000000300000018
:1045F0000400000006000000F8B500BFF8BC08BCCD
:104600009E467047CD410000C9020000F8B500BFCA
:0C461000F8BC08BC9E467047A1020000E8
:10461C00141500200800002000000000D813002012
:10462C0040140020A814002000000000000000002E
:10463C00000000000000000000000000000000006E
:10464C00000000000000000000000000000000005E
:10465C00000000000000000000000000000000004E
:10466C00000000000000000000000000000000003E
:10467C00000000000000000000000000000000002E
:10468C00000000000000000000000000000000001E
:10469C00000000000000000000000000000000000E
:1046AC0000000000000000000000000000000000FE
:1046BC0001000000000000000E33CDAB34126DE69B
:1046CC00ECDE05000B000000000000000000000004
:1046DC0000000000000000000000000000000000CE
:1046EC0000000000000000000000000000000000BE
:1046FC0000000000000000000000000000000000AE
:10470C00000000000000000000000000000000009D
:10471C00000000000000000000000000000000008D
:10472C00000000000000000000000000000000007D
:10473C00000000000000000000000000000000006D
:10474C00000000000000000000000000000000005D
:08475C00000000000000000055
:00000001FF
